{
  "_format": "hh-sol-artifact-1",
  "contractName": "Voting",
  "sourceName": "contracts/Voting.sol",
  "abi": [
    {
      "inputs": [],
      "stateMutability": "nonpayable",
      "type": "constructor"
    },
    {
      "inputs": [
        {
          "internalType": "string",
          "name": "_name",
          "type": "string"
        }
      ],
      "name": "addCandidate",
      "outputs": [],
      "stateMutability": "nonpayable",
      "type": "function"
    },
    {
      "inputs": [],
      "name": "admin",
      "outputs": [
        {
          "internalType": "address",
          "name": "",
          "type": "address"
        }
      ],
      "stateMutability": "view",
      "type": "function"
    },
    {
      "inputs": [
        {
          "internalType": "uint256",
          "name": "",
          "type": "uint256"
        }
      ],
      "name": "candidates",
      "outputs": [
        {
          "internalType": "uint256",
          "name": "id",
          "type": "uint256"
        },
        {
          "internalType": "string",
          "name": "name",
          "type": "string"
        },
        {
          "internalType": "uint256",
          "name": "voteCount",
          "type": "uint256"
        }
      ],
      "stateMutability": "view",
      "type": "function"
    },
    {
      "inputs": [],
      "name": "candidatesCount",
      "outputs": [
        {
          "internalType": "uint256",
          "name": "",
          "type": "uint256"
        }
      ],
      "stateMutability": "view",
      "type": "function"
    },
    {
      "inputs": [],
      "name": "endVoting",
      "outputs": [],
      "stateMutability": "nonpayable",
      "type": "function"
    },
    {
      "inputs": [],
      "name": "getWinner",
      "outputs": [
        {
          "internalType": "string",
          "name": "winnerName",
          "type": "string"
        }
      ],
      "stateMutability": "view",
      "type": "function"
    },
    {
      "inputs": [
        {
          "internalType": "address",
          "name": "_voter",
          "type": "address"
        }
      ],
      "name": "registerVoter",
      "outputs": [],
      "stateMutability": "nonpayable",
      "type": "function"
    },
    {
      "inputs": [
        {
          "internalType": "uint256",
          "name": "_deadline",
          "type": "uint256"
        }
      ],
      "name": "startVoting",
      "outputs": [],
      "stateMutability": "nonpayable",
      "type": "function"
    },
    {
      "inputs": [
        {
          "internalType": "uint256",
          "name": "_candidateId",
          "type": "uint256"
        }
      ],
      "name": "vote",
      "outputs": [],
      "stateMutability": "nonpayable",
      "type": "function"
    },
    {
      "inputs": [
        {
          "internalType": "address",
          "name": "",
          "type": "address"
        }
      ],
      "name": "voters",
      "outputs": [
        {
          "internalType": "bool",
          "name": "isRegistered",
          "type": "bool"
        },
        {
          "internalType": "bool",
          "name": "hasVoted",
          "type": "bool"
        },
        {
          "internalType": "uint256",
          "name": "votedCandidateId",
          "type": "uint256"
        }
      ],
      "stateMutability": "view",
      "type": "function"
    },
    {
      "inputs": [],
      "name": "votingDeadline",
      "outputs": [
        {
          "internalType": "uint256",
          "name": "",
          "type": "uint256"
        }
      ],
      "stateMutability": "view",
      "type": "function"
    },
    {
      "inputs": [],
      "name": "votingEnded",
      "outputs": [
        {
          "internalType": "bool",
          "name": "",
          "type": "bool"
        }
      ],
      "stateMutability": "view",
      "type": "function"
    },
    {
      "inputs": [],
      "name": "votingStarted",
      "outputs": [
        {
          "internalType": "bool",
          "name": "",
          "type": "bool"
        }
      ],
      "stateMutability": "view",
      "type": "function"
    }
  ],
  "bytecode": "0x608060405234801561001057600080fd5b50336000806101000a81548173ffffffffffffffffffffffffffffffffffffffff021916908373ffffffffffffffffffffffffffffffffffffffff160217905550611a20806100606000396000f3fe608060405234801561001057600080fd5b50600436106100cf5760003560e01c8063462e91ec1161008c5780639d5a0529116100665780639d5a0529146101ee578063a3ec138d1461020c578063c3403ddf1461023e578063f851a44014610248576100cf565b8063462e91ec1461019657806383d948b7146101b25780638e7ea5b2146101d0576100cf565b80630121b93f146100d4578063036ee850146100f05780632d35a8a21461010e5780633477ee2e1461012c57806338db6dd31461015e5780633d2f5bda1461017a575b600080fd5b6100ee60048036038101906100e99190610d0c565b610266565b005b6100f86104a0565b6040516101059190610d48565b60405180910390f35b6101166104a6565b6040516101239190610d48565b60405180910390f35b61014660048036038101906101419190610d0c565b6104ac565b60405161015593929190610df3565b60405180910390f35b61017860048036038101906101739190610e8f565b61055e565b005b610194600480360381019061018f9190610d0c565b6106da565b005b6101b060048036038101906101ab9190610ff1565b610839565b005b6101ba610942565b6040516101c79190611055565b60405180910390f35b6101d8610955565b6040516101e59190611070565b60405180910390f35b6101f6610afd565b6040516102039190611055565b60405180910390f35b61022660048036038101906102219190610e8f565b610b10565b60405161023593929190611092565b60405180910390f35b610246610b54565b005b610250610c9e565b60405161025d91906110d8565b60405180910390f35b600060149054906101000a900460ff16801561028f5750600060159054906101000a900460ff16155b6102ce576040517f08c379a00000000000000000000000000000000000000000000000000000000081526004016102c59061113f565b60405180910390fd5b600154421115610313576040517f08c379a000000000000000000000000000000000000000000000000000000000815260040161030a906111ab565b60405180910390fd5b6000600260003373ffffffffffffffffffffffffffffffffffffffff1673ffffffffffffffffffffffffffffffffffffffff16815260200190815260200160002090508060000160009054906101000a900460ff166103a7576040517f08c379a000000000000000000000000000000000000000000000000000000000815260040161039e90611217565b60405180910390fd5b8060000160019054906101000a900460ff16156103f9576040517f08c379a00000000000000000000000000000000000000000000000000000000081526004016103f090611283565b60405180910390fd5b60008211801561040b57506004548211155b61044a576040517f08c379a0000000000000000000000000000000000000000000000000000000008152600401610441906112ef565b60405180910390fd5b60018160000160016101000a81548160ff0219169083151502179055508181600101819055506003600083815260200190815260200160002060020160008154809291906104979061133e565b91905055505050565b60015481565b60045481565b60036020528060005260406000206000915090508060000154908060010180546104d5906113b5565b80601f0160208091040260200160405190810160405280929190818152602001828054610501906113b5565b801561054e5780601f106105235761010080835404028352916020019161054e565b820191906000526020600020905b81548152906001019060200180831161053157829003601f168201915b5050505050908060020154905083565b60008054906101000a900473ffffffffffffffffffffffffffffffffffffffff1673ffffffffffffffffffffffffffffffffffffffff163373ffffffffffffffffffffffffffffffffffffffff16146105ec576040517f08c379a00000000000000000000000000000000000000000000000000000000081526004016105e390611458565b60405180910390fd5b600260008273ffffffffffffffffffffffffffffffffffffffff1673ffffffffffffffffffffffffffffffffffffffff16815260200190815260200160002060000160009054906101000a900460ff161561067c576040517f08c379a0000000000000000000000000000000000000000000000000000000008152600401610673906114c4565b60405180910390fd5b6001600260008373ffffffffffffffffffffffffffffffffffffffff1673ffffffffffffffffffffffffffffffffffffffff16815260200190815260200160002060000160006101000a81548160ff02191690831515021790555050565b60008054906101000a900473ffffffffffffffffffffffffffffffffffffffff1673ffffffffffffffffffffffffffffffffffffffff163373ffffffffffffffffffffffffffffffffffffffff1614610768576040517f08c379a000000000000000000000000000000000000000000000000000000000815260040161075f90611458565b60405180910390fd5b600060149054906101000a900460ff16156107b8576040517f08c379a00000000000000000000000000000000000000000000000000000000081526004016107af90611530565b60405180910390fd5b4281116107fa576040517f08c379a00000000000000000000000000000000000000000000000000000000081526004016107f19061159c565b60405180910390fd5b6001600060146101000a81548160ff02191690831515021790555060008060156101000a81548160ff0219169083151502179055508060018190555050565b60008054906101000a900473ffffffffffffffffffffffffffffffffffffffff1673ffffffffffffffffffffffffffffffffffffffff163373ffffffffffffffffffffffffffffffffffffffff16146108c7576040517f08c379a00000000000000000000000000000000000000000000000000000000081526004016108be90611458565b60405180910390fd5b600460008154809291906108da9061133e565b91905055506040518060600160405280600454815260200182815260200160008152506003600060045481526020019081526020016000206000820151816000015560208201518160010190816109319190611768565b506040820151816002015590505050565b600060149054906101000a900460ff1681565b6060600060159054906101000a900460ff1680610973575060015442115b6109b2576040517f08c379a00000000000000000000000000000000000000000000000000000000081526004016109a990611886565b60405180910390fd5b6000806000600190505b6004548111610a13578260036000838152602001908152602001600020600201541115610a0057600360008281526020019081526020016000206002015492508091505b8080610a0b9061133e565b9150506109bc565b5060008103610a57576040517f08c379a0000000000000000000000000000000000000000000000000000000008152600401610a4e906118f2565b60405180910390fd5b600360008281526020019081526020016000206001018054610a78906113b5565b80601f0160208091040260200160405190810160405280929190818152602001828054610aa4906113b5565b8015610af15780601f10610ac657610100808354040283529160200191610af1565b820191906000526020600020905b815481529060010190602001808311610ad457829003601f168201915b50505050509250505090565b600060159054906101000a900460ff1681565b60026020528060005260406000206000915090508060000160009054906101000a900460ff16908060000160019054906101000a900460ff16908060010154905083565b60008054906101000a900473ffffffffffffffffffffffffffffffffffffffff1673ffffffffffffffffffffffffffffffffffffffff163373ffffffffffffffffffffffffffffffffffffffff1614610be2576040517f08c379a0000000000000000000000000000000000000000000000000000000008152600401610bd990611458565b60405180910390fd5b600060149054906101000a900460ff16610c31576040517f08c379a0000000000000000000000000000000000000000000000000000000008152600401610c289061195e565b60405180910390fd5b600060159054906101000a900460ff1615610c81576040517f08c379a0000000000000000000000000000000000000000000000000000000008152600401610c78906119ca565b60405180910390fd5b6001600060156101000a81548160ff021916908315150217905550565b60008054906101000a900473ffffffffffffffffffffffffffffffffffffffff1681565b6000604051905090565b600080fd5b600080fd5b6000819050919050565b610ce981610cd6565b8114610cf457600080fd5b50565b600081359050610d0681610ce0565b92915050565b600060208284031215610d2257610d21610ccc565b5b6000610d3084828501610cf7565b91505092915050565b610d4281610cd6565b82525050565b6000602082019050610d5d6000830184610d39565b92915050565b600081519050919050565b600082825260208201905092915050565b60005b83811015610d9d578082015181840152602081019050610d82565b60008484015250505050565b6000601f19601f8301169050919050565b6000610dc582610d63565b610dcf8185610d6e565b9350610ddf818560208601610d7f565b610de881610da9565b840191505092915050565b6000606082019050610e086000830186610d39565b8181036020830152610e1a8185610dba565b9050610e296040830184610d39565b949350505050565b600073ffffffffffffffffffffffffffffffffffffffff82169050919050565b6000610e5c82610e31565b9050919050565b610e6c81610e51565b8114610e7757600080fd5b50565b600081359050610e8981610e63565b92915050565b600060208284031215610ea557610ea4610ccc565b5b6000610eb384828501610e7a565b91505092915050565b600080fd5b600080fd5b7f4e487b7100000000000000000000000000000000000000000000000000000000600052604160045260246000fd5b610efe82610da9565b810181811067ffffffffffffffff82111715610f1d57610f1c610ec6565b5b80604052505050565b6000610f30610cc2565b9050610f3c8282610ef5565b919050565b600067ffffffffffffffff821115610f5c57610f5b610ec6565b5b610f6582610da9565b9050602081019050919050565b82818337600083830152505050565b6000610f94610f8f84610f41565b610f26565b905082815260208101848484011115610fb057610faf610ec1565b5b610fbb848285610f72565b509392505050565b600082601f830112610fd857610fd7610ebc565b5b8135610fe8848260208601610f81565b91505092915050565b60006020828403121561100757611006610ccc565b5b600082013567ffffffffffffffff81111561102557611024610cd1565b5b61103184828501610fc3565b91505092915050565b60008115159050919050565b61104f8161103a565b82525050565b600060208201905061106a6000830184611046565b92915050565b6000602082019050818103600083015261108a8184610dba565b905092915050565b60006060820190506110a76000830186611046565b6110b46020830185611046565b6110c16040830184610d39565b949350505050565b6110d281610e51565b82525050565b60006020820190506110ed60008301846110c9565b92915050565b7f566f74696e67206973206e6f7420616374697665000000000000000000000000600082015250565b6000611129601483610d6e565b9150611134826110f3565b602082019050919050565b600060208201905081810360008301526111588161111c565b9050919050565b7f566f74696e6720706572696f6420686173207061737365640000000000000000600082015250565b6000611195601883610d6e565b91506111a08261115f565b602082019050919050565b600060208201905081810360008301526111c481611188565b9050919050565b7f596f7520617265206e6f74207265676973746572656420746f20766f74650000600082015250565b6000611201601e83610d6e565b915061120c826111cb565b602082019050919050565b60006020820190508181036000830152611230816111f4565b9050919050565b7f596f75206861766520616c726561647920766f74656400000000000000000000600082015250565b600061126d601683610d6e565b915061127882611237565b602082019050919050565b6000602082019050818103600083015261129c81611260565b9050919050565b7f496e76616c69642063616e646964617465000000000000000000000000000000600082015250565b60006112d9601183610d6e565b91506112e4826112a3565b602082019050919050565b60006020820190508181036000830152611308816112cc565b9050919050565b7f4e487b7100000000000000000000000000000000000000000000000000000000600052601160045260246000fd5b600061134982610cd6565b91507fffffffffffffffffffffffffffffffffffffffffffffffffffffffffffffffff820361137b5761137a61130f565b5b600182019050919050565b7f4e487b7100000000000000000000000000000000000000000000000000000000600052602260045260246000fd5b600060028204905060018216806113cd57607f821691505b6020821081036113e0576113df611386565b5b50919050565b7f4f6e6c792061646d696e2063616e20706572666f726d2074686973206163746960008201527f6f6e000000000000000000000000000000000000000000000000000000000000602082015250565b6000611442602283610d6e565b915061144d826113e6565b604082019050919050565b6000602082019050818103600083015261147181611435565b9050919050565b7f566f74657220616c726561647920726567697374657265640000000000000000600082015250565b60006114ae601883610d6e565b91506114b982611478565b602082019050919050565b600060208201905081810360008301526114dd816114a1565b9050919050565b7f566f74696e6720616c7265616479207374617274656400000000000000000000600082015250565b600061151a601683610d6e565b9150611525826114e4565b602082019050919050565b600060208201905081810360008301526115498161150d565b9050919050565b7f446561646c696e65206d75737420626520696e20746865206675747572650000600082015250565b6000611586601e83610d6e565b915061159182611550565b602082019050919050565b600060208201905081810360008301526115b581611579565b9050919050565b60008190508160005260206000209050919050565b60006020601f8301049050919050565b600082821b905092915050565b60006008830261161e7fffffffffffffffffffffffffffffffffffffffffffffffffffffffffffffffff826115e1565b61162886836115e1565b95508019841693508086168417925050509392505050565b6000819050919050565b600061166561166061165b84610cd6565b611640565b610cd6565b9050919050565b6000819050919050565b61167f8361164a565b61169361168b8261166c565b8484546115ee565b825550505050565b600090565b6116a861169b565b6116b3818484611676565b505050565b5b818110156116d7576116cc6000826116a0565b6001810190506116b9565b5050565b601f82111561171c576116ed816115bc565b6116f6846115d1565b81016020851015611705578190505b611719611711856115d1565b8301826116b8565b50505b505050565b600082821c905092915050565b600061173f60001984600802611721565b1980831691505092915050565b6000611758838361172e565b9150826002028217905092915050565b61177182610d63565b67ffffffffffffffff81111561178a57611789610ec6565b5b61179482546113b5565b61179f8282856116db565b600060209050601f8311600181146117d257600084156117c0578287015190505b6117ca858261174c565b865550611832565b601f1984166117e0866115bc565b60005b82811015611808578489015182556001820191506020850194506020810190506117e3565b868310156118255784890151611821601f89168261172e565b8355505b6001600288020188555050505b505050505050565b7f566f74696e67206973206e6f742079657420656e646564000000000000000000600082015250565b6000611870601783610d6e565b915061187b8261183a565b602082019050919050565b6000602082019050818103600083015261189f81611863565b9050919050565b7f4e6f20766f746573207765726520636173740000000000000000000000000000600082015250565b60006118dc601283610d6e565b91506118e7826118a6565b602082019050919050565b6000602082019050818103600083015261190b816118cf565b9050919050565b7f566f74696e6720686173206e6f74207374617274656400000000000000000000600082015250565b6000611948601683610d6e565b915061195382611912565b602082019050919050565b600060208201905081810360008301526119778161193b565b9050919050565b7f566f74696e6720616c726561647920656e646564000000000000000000000000600082015250565b60006119b4601483610d6e565b91506119bf8261197e565b602082019050919050565b600060208201905081810360008301526119e3816119a7565b905091905056fea2646970667358221220f440c0b4614e7accac47fb0e8e1a00b6b4e0ac291dde4d5bee304fdf260f7f6464736f6c63430008120033",
  "linkReferences": {},
  "deployedLinkReferences": {}
}